{
  "_format": "hh-sol-artifact-1",
  "contractName": "SBT",
  "sourceName": "app/contracts/sbt.sol",
  "abi": [
    {
      "inputs": [
        {
          "internalType": "address",
          "name": "initialOwner",
          "type": "address"
        }
      ],
      "stateMutability": "nonpayable",
      "type": "constructor"
    },
    {
      "inputs": [
        {
          "internalType": "address",
          "name": "sender",
          "type": "address"
        },
        {
          "internalType": "uint256",
          "name": "tokenId",
          "type": "uint256"
        },
        {
          "internalType": "address",
          "name": "owner",
          "type": "address"
        }
      ],
      "name": "ERC721IncorrectOwner",
      "type": "error"
    },
    {
      "inputs": [
        {
          "internalType": "address",
          "name": "operator",
          "type": "address"
        },
        {
          "internalType": "uint256",
          "name": "tokenId",
          "type": "uint256"
        }
      ],
      "name": "ERC721InsufficientApproval",
      "type": "error"
    },
    {
      "inputs": [
        {
          "internalType": "address",
          "name": "approver",
          "type": "address"
        }
      ],
      "name": "ERC721InvalidApprover",
      "type": "error"
    },
    {
      "inputs": [
        {
          "internalType": "address",
          "name": "operator",
          "type": "address"
        }
      ],
      "name": "ERC721InvalidOperator",
      "type": "error"
    },
    {
      "inputs": [
        {
          "internalType": "address",
          "name": "owner",
          "type": "address"
        }
      ],
      "name": "ERC721InvalidOwner",
      "type": "error"
    },
    {
      "inputs": [
        {
          "internalType": "address",
          "name": "receiver",
          "type": "address"
        }
      ],
      "name": "ERC721InvalidReceiver",
      "type": "error"
    },
    {
      "inputs": [
        {
          "internalType": "address",
          "name": "sender",
          "type": "address"
        }
      ],
      "name": "ERC721InvalidSender",
      "type": "error"
    },
    {
      "inputs": [
        {
          "internalType": "uint256",
          "name": "tokenId",
          "type": "uint256"
        }
      ],
      "name": "ERC721NonexistentToken",
      "type": "error"
    },
    {
      "inputs": [
        {
          "internalType": "address",
          "name": "owner",
          "type": "address"
        }
      ],
      "name": "OwnableInvalidOwner",
      "type": "error"
    },
    {
      "inputs": [
        {
          "internalType": "address",
          "name": "account",
          "type": "address"
        }
      ],
      "name": "OwnableUnauthorizedAccount",
      "type": "error"
    },
    {
      "anonymous": false,
      "inputs": [
        {
          "indexed": true,
          "internalType": "address",
          "name": "owner",
          "type": "address"
        },
        {
          "indexed": true,
          "internalType": "address",
          "name": "approved",
          "type": "address"
        },
        {
          "indexed": true,
          "internalType": "uint256",
          "name": "tokenId",
          "type": "uint256"
        }
      ],
      "name": "Approval",
      "type": "event"
    },
    {
      "anonymous": false,
      "inputs": [
        {
          "indexed": true,
          "internalType": "address",
          "name": "owner",
          "type": "address"
        },
        {
          "indexed": true,
          "internalType": "address",
          "name": "operator",
          "type": "address"
        },
        {
          "indexed": false,
          "internalType": "bool",
          "name": "approved",
          "type": "bool"
        }
      ],
      "name": "ApprovalForAll",
      "type": "event"
    },
    {
      "anonymous": false,
      "inputs": [
        {
          "indexed": true,
          "internalType": "address",
          "name": "previousOwner",
          "type": "address"
        },
        {
          "indexed": true,
          "internalType": "address",
          "name": "newOwner",
          "type": "address"
        }
      ],
      "name": "OwnershipTransferred",
      "type": "event"
    },
    {
      "anonymous": false,
      "inputs": [
        {
          "indexed": true,
          "internalType": "address",
          "name": "from",
          "type": "address"
        },
        {
          "indexed": true,
          "internalType": "address",
          "name": "to",
          "type": "address"
        },
        {
          "indexed": true,
          "internalType": "uint256",
          "name": "tokenId",
          "type": "uint256"
        }
      ],
      "name": "Transfer",
      "type": "event"
    },
    {
      "inputs": [
        {
          "internalType": "address",
          "name": "to",
          "type": "address"
        },
        {
          "internalType": "uint256",
          "name": "tokenId",
          "type": "uint256"
        }
      ],
      "name": "approve",
      "outputs": [],
      "stateMutability": "nonpayable",
      "type": "function"
    },
    {
      "inputs": [
        {
          "internalType": "uint256",
          "name": "tokenId",
          "type": "uint256"
        }
      ],
      "name": "approveCertificate",
      "outputs": [],
      "stateMutability": "nonpayable",
      "type": "function"
    },
    {
      "inputs": [
        {
          "internalType": "address",
          "name": "owner",
          "type": "address"
        }
      ],
      "name": "balanceOf",
      "outputs": [
        {
          "internalType": "uint256",
          "name": "",
          "type": "uint256"
        }
      ],
      "stateMutability": "view",
      "type": "function"
    },
    {
      "inputs": [
        {
          "internalType": "uint256",
          "name": "tokenId",
          "type": "uint256"
        }
      ],
      "name": "burn",
      "outputs": [],
      "stateMutability": "nonpayable",
      "type": "function"
    },
    {
      "inputs": [
        {
          "internalType": "uint256",
          "name": "tokenId",
          "type": "uint256"
        }
      ],
      "name": "getApproved",
      "outputs": [
        {
          "internalType": "address",
          "name": "",
          "type": "address"
        }
      ],
      "stateMutability": "view",
      "type": "function"
    },
    {
      "inputs": [
        {
          "internalType": "address",
          "name": "owner",
          "type": "address"
        },
        {
          "internalType": "address",
          "name": "operator",
          "type": "address"
        }
      ],
      "name": "isApprovedForAll",
      "outputs": [
        {
          "internalType": "bool",
          "name": "",
          "type": "bool"
        }
      ],
      "stateMutability": "view",
      "type": "function"
    },
    {
      "inputs": [
        {
          "internalType": "address",
          "name": "student",
          "type": "address"
        }
      ],
      "name": "mint",
      "outputs": [],
      "stateMutability": "nonpayable",
      "type": "function"
    },
    {
      "inputs": [],
      "name": "name",
      "outputs": [
        {
          "internalType": "string",
          "name": "",
          "type": "string"
        }
      ],
      "stateMutability": "view",
      "type": "function"
    },
    {
      "inputs": [],
      "name": "owner",
      "outputs": [
        {
          "internalType": "address",
          "name": "",
          "type": "address"
        }
      ],
      "stateMutability": "view",
      "type": "function"
    },
    {
      "inputs": [
        {
          "internalType": "uint256",
          "name": "tokenId",
          "type": "uint256"
        }
      ],
      "name": "ownerOf",
      "outputs": [
        {
          "internalType": "address",
          "name": "",
          "type": "address"
        }
      ],
      "stateMutability": "view",
      "type": "function"
    },
    {
      "inputs": [],
      "name": "renounceOwnership",
      "outputs": [],
      "stateMutability": "nonpayable",
      "type": "function"
    },
    {
      "inputs": [
        {
          "internalType": "address",
          "name": "from",
          "type": "address"
        },
        {
          "internalType": "address",
          "name": "to",
          "type": "address"
        },
        {
          "internalType": "uint256",
          "name": "tokenId",
          "type": "uint256"
        }
      ],
      "name": "safeTransferFrom",
      "outputs": [],
      "stateMutability": "nonpayable",
      "type": "function"
    },
    {
      "inputs": [
        {
          "internalType": "address",
          "name": "from",
          "type": "address"
        },
        {
          "internalType": "address",
          "name": "to",
          "type": "address"
        },
        {
          "internalType": "uint256",
          "name": "tokenId",
          "type": "uint256"
        },
        {
          "internalType": "bytes",
          "name": "data",
          "type": "bytes"
        }
      ],
      "name": "safeTransferFrom",
      "outputs": [],
      "stateMutability": "nonpayable",
      "type": "function"
    },
    {
      "inputs": [
        {
          "internalType": "address",
          "name": "operator",
          "type": "address"
        },
        {
          "internalType": "bool",
          "name": "approved",
          "type": "bool"
        }
      ],
      "name": "setApprovalForAll",
      "outputs": [],
      "stateMutability": "nonpayable",
      "type": "function"
    },
    {
      "inputs": [
        {
          "internalType": "address",
          "name": "student",
          "type": "address"
        }
      ],
      "name": "studentCertificates",
      "outputs": [
        {
          "internalType": "uint256[]",
          "name": "",
          "type": "uint256[]"
        }
      ],
      "stateMutability": "view",
      "type": "function"
    },
    {
      "inputs": [
        {
          "internalType": "bytes4",
          "name": "interfaceId",
          "type": "bytes4"
        }
      ],
      "name": "supportsInterface",
      "outputs": [
        {
          "internalType": "bool",
          "name": "",
          "type": "bool"
        }
      ],
      "stateMutability": "view",
      "type": "function"
    },
    {
      "inputs": [],
      "name": "symbol",
      "outputs": [
        {
          "internalType": "string",
          "name": "",
          "type": "string"
        }
      ],
      "stateMutability": "view",
      "type": "function"
    },
    {
      "inputs": [
        {
          "internalType": "uint256",
          "name": "tokenId",
          "type": "uint256"
        }
      ],
      "name": "tokenURI",
      "outputs": [
        {
          "internalType": "string",
          "name": "",
          "type": "string"
        }
      ],
      "stateMutability": "view",
      "type": "function"
    },
    {
      "inputs": [
        {
          "internalType": "address",
          "name": "from",
          "type": "address"
        },
        {
          "internalType": "address",
          "name": "to",
          "type": "address"
        },
        {
          "internalType": "uint256",
          "name": "tokenId",
          "type": "uint256"
        }
      ],
      "name": "transferFrom",
      "outputs": [],
      "stateMutability": "nonpayable",
      "type": "function"
    },
    {
      "inputs": [
        {
          "internalType": "address",
          "name": "newOwner",
          "type": "address"
        }
      ],
      "name": "transferOwnership",
      "outputs": [],
      "stateMutability": "nonpayable",
      "type": "function"
    }
  ],
  "bytecode": "0x60806040523480156200001157600080fd5b50604051620031b1380380620031b1833981810160405281019062000037919062000288565b806040518060400160405280601581526020017f556e6976657273697479436572746966696361746500000000000000000000008152506040518060400160405280600381526020017f554e4900000000000000000000000000000000000000000000000000000000008152508160009081620000b5919062000534565b508060019081620000c7919062000534565b505050600073ffffffffffffffffffffffffffffffffffffffff168173ffffffffffffffffffffffffffffffffffffffff16036200013f5760006040517f1e4fbdf70000000000000000000000000000000000000000000000000000000081526004016200013691906200062c565b60405180910390fd5b62000150816200015860201b60201c565b505062000649565b6000600660009054906101000a900473ffffffffffffffffffffffffffffffffffffffff16905081600660006101000a81548173ffffffffffffffffffffffffffffffffffffffff021916908373ffffffffffffffffffffffffffffffffffffffff1602179055508173ffffffffffffffffffffffffffffffffffffffff168173ffffffffffffffffffffffffffffffffffffffff167f8be0079c531659141344cd1fd0a4f28419497f9722a3daafe3b4186f6b6457e060405160405180910390a35050565b600080fd5b600073ffffffffffffffffffffffffffffffffffffffff82169050919050565b6000620002508262000223565b9050919050565b620002628162000243565b81146200026e57600080fd5b50565b600081519050620002828162000257565b92915050565b600060208284031215620002a157620002a06200021e565b5b6000620002b18482850162000271565b91505092915050565b600081519050919050565b7f4e487b7100000000000000000000000000000000000000000000000000000000600052604160045260246000fd5b7f4e487b7100000000000000000000000000000000000000000000000000000000600052602260045260246000fd5b600060028204905060018216806200033c57607f821691505b602082108103620003525762000351620002f4565b5b50919050565b60008190508160005260206000209050919050565b60006020601f8301049050919050565b600082821b905092915050565b600060088302620003bc7fffffffffffffffffffffffffffffffffffffffffffffffffffffffffffffffff826200037d565b620003c886836200037d565b95508019841693508086168417925050509392505050565b6000819050919050565b6000819050919050565b6000620004156200040f6200040984620003e0565b620003ea565b620003e0565b9050919050565b6000819050919050565b6200043183620003f4565b6200044962000440826200041c565b8484546200038a565b825550505050565b600090565b6200046062000451565b6200046d81848462000426565b505050565b5b8181101562000495576200048960008262000456565b60018101905062000473565b5050565b601f821115620004e457620004ae8162000358565b620004b9846200036d565b81016020851015620004c9578190505b620004e1620004d8856200036d565b83018262000472565b50505b505050565b600082821c905092915050565b60006200050960001984600802620004e9565b1980831691505092915050565b6000620005248383620004f6565b9150826002028217905092915050565b6200053f82620002ba565b67ffffffffffffffff8111156200055b576200055a620002c5565b5b62000567825462000323565b6200057482828562000499565b600060209050601f831160018114620005ac576000841562000597578287015190505b620005a3858262000516565b86555062000613565b601f198416620005bc8662000358565b60005b82811015620005e657848901518255600182019150602085019450602081019050620005bf565b8683101562000606578489015162000602601f891682620004f6565b8355505b6001600288020188555050505b505050505050565b620006268162000243565b82525050565b60006020820190506200064360008301846200061b565b92915050565b612b5880620006596000396000f3fe608060405234801561001057600080fd5b506004361061012c5760003560e01c8063715018a6116100ad578063b88d4fde11610071578063b88d4fde1461032d578063c87b56dd14610349578063e985e9c514610379578063f2fde38b146103a9578063f4025568146103c55761012c565b8063715018a61461029b5780638da5cb5b146102a557806395d89b41146102c3578063a22cb465146102e1578063a3daddc5146102fd5761012c565b806342842e0e116100f457806342842e0e146101e757806342966c68146102035780636352211e1461021f5780636a6278421461024f57806370a082311461026b5761012c565b806301ffc9a71461013157806306fdde0314610161578063081812fc1461017f578063095ea7b3146101af57806323b872dd146101cb575b600080fd5b61014b60048036038101906101469190611fe3565b6103e1565b604051610158919061202b565b60405180910390f35b6101696104c3565b60405161017691906120d6565b60405180910390f35b6101996004803603810190610194919061212e565b610555565b6040516101a6919061219c565b60405180910390f35b6101c960048036038101906101c491906121e3565b610571565b005b6101e560048036038101906101e09190612223565b610587565b005b61020160048036038101906101fc9190612223565b610689565b005b61021d6004803603810190610218919061212e565b6106a9565b005b6102396004803603810190610234919061212e565b6107d3565b604051610246919061219c565b60405180910390f35b61026960048036038101906102649190612276565b6107e5565b005b61028560048036038101906102809190612276565b6108f1565b60405161029291906122b2565b60405180910390f35b6102a36109ab565b005b6102ad6109bf565b6040516102ba919061219c565b60405180910390f35b6102cb6109e9565b6040516102d891906120d6565b60405180910390f35b6102fb60048036038101906102f691906122f9565b610a7b565b005b61031760048036038101906103129190612276565b610a91565b60405161032491906123f7565b60405180910390f35b6103476004803603810190610342919061254e565b610b28565b005b610363600480360381019061035e919061212e565b610b45565b60405161037091906120d6565b60405180910390f35b610393600480360381019061038e91906125d1565b610bae565b6040516103a0919061202b565b60405180910390f35b6103c360048036038101906103be9190612276565b610c42565b005b6103df60048036038101906103da919061212e565b610cc8565b005b60007f80ac58cd000000000000000000000000000000000000000000000000000000007bffffffffffffffffffffffffffffffffffffffffffffffffffffffff1916827bffffffffffffffffffffffffffffffffffffffffffffffffffffffff191614806104ac57507f5b5e139f000000000000000000000000000000000000000000000000000000007bffffffffffffffffffffffffffffffffffffffffffffffffffffffff1916827bffffffffffffffffffffffffffffffffffffffffffffffffffffffff1916145b806104bc57506104bb82610dd3565b5b9050919050565b6060600080546104d290612640565b80601f01602080910402602001604051908101604052809291908181526020018280546104fe90612640565b801561054b5780601f106105205761010080835404028352916020019161054b565b820191906000526020600020905b81548152906001019060200180831161052e57829003601f168201915b5050505050905090565b600061056082610e3d565b5061056a82610ec5565b9050919050565b610583828261057e610f02565b610f0a565b5050565b600073ffffffffffffffffffffffffffffffffffffffff168273ffffffffffffffffffffffffffffffffffffffff16036105f95760006040517f64a0ae920000000000000000000000000000000000000000000000000000000081526004016105f0919061219c565b60405180910390fd5b600061060d8383610608610f02565b610f1c565b90508373ffffffffffffffffffffffffffffffffffffffff168173ffffffffffffffffffffffffffffffffffffffff1614610683578382826040517f64283d7b00000000000000000000000000000000000000000000000000000000815260040161067a93929190612671565b60405180910390fd5b50505050565b6106a483838360405180602001604052806000815250610b28565b505050565b6106b1611068565b6007600082815260200190815260200160002060000160009054906101000a900460ff16610714576040517f08c379a000000000000000000000000000000000000000000000000000000000815260040161070b906126f4565b60405180910390fd5b6007600082815260200190815260200160002060000160019054906101000a900460ff16610777576040517f08c379a000000000000000000000000000000000000000000000000000000000815260040161076e90612760565b60405180910390fd5b610780816110ef565b60076000828152602001908152602001600020600080820160006101000a81549060ff02191690556000820160016101000a81549060ff021916905550506107d06107ca826107d3565b82611175565b50565b60006107de82610e3d565b9050919050565b6107ed611068565b600060095490506107fe828261127f565b6040518060400160405280600115158152602001600015158152506007600083815260200190815260200160002060008201518160000160006101000a81548160ff02191690831515021790555060208201518160000160016101000a81548160ff021916908315150217905550905050600860008373ffffffffffffffffffffffffffffffffffffffff1673ffffffffffffffffffffffffffffffffffffffff168152602001908152602001600020819080600181540180825580915050600190039060005260206000200160009091909190915055600960008154809291906108e8906127af565b91905055505050565b60008073ffffffffffffffffffffffffffffffffffffffff168273ffffffffffffffffffffffffffffffffffffffff16036109645760006040517f89c62b6400000000000000000000000000000000000000000000000000000000815260040161095b919061219c565b60405180910390fd5b600360008373ffffffffffffffffffffffffffffffffffffffff1673ffffffffffffffffffffffffffffffffffffffff168152602001908152602001600020549050919050565b6109b3611068565b6109bd600061129d565b565b6000600660009054906101000a900473ffffffffffffffffffffffffffffffffffffffff16905090565b6060600180546109f890612640565b80601f0160208091040260200160405190810160405280929190818152602001828054610a2490612640565b8015610a715780601f10610a4657610100808354040283529160200191610a71565b820191906000526020600020905b815481529060010190602001808311610a5457829003601f168201915b5050505050905090565b610a8d610a86610f02565b8383611363565b5050565b6060600860008373ffffffffffffffffffffffffffffffffffffffff1673ffffffffffffffffffffffffffffffffffffffff168152602001908152602001600020805480602002602001604051908101604052809291908181526020018280548015610b1c57602002820191906000526020600020905b815481526020019060010190808311610b08575b50505050509050919050565b610b33848484610587565b610b3f848484846114d2565b50505050565b6060610b5082610e3d565b506000610b5b611689565b90506000815111610b7b5760405180602001604052806000815250610ba6565b80610b85846116a0565b604051602001610b96929190612833565b6040516020818303038152906040525b915050919050565b6000600560008473ffffffffffffffffffffffffffffffffffffffff1673ffffffffffffffffffffffffffffffffffffffff16815260200190815260200160002060008373ffffffffffffffffffffffffffffffffffffffff1673ffffffffffffffffffffffffffffffffffffffff16815260200190815260200160002060009054906101000a900460ff16905092915050565b610c4a611068565b600073ffffffffffffffffffffffffffffffffffffffff168173ffffffffffffffffffffffffffffffffffffffff1603610cbc5760006040517f1e4fbdf7000000000000000000000000000000000000000000000000000000008152600401610cb3919061219c565b60405180910390fd5b610cc58161129d565b50565b6007600082815260200190815260200160002060000160009054906101000a900460ff16610d2b576040517f08c379a0000000000000000000000000000000000000000000000000000000008152600401610d22906126f4565b60405180910390fd5b3373ffffffffffffffffffffffffffffffffffffffff16610d4b826107d3565b73ffffffffffffffffffffffffffffffffffffffff1614610da1576040517f08c379a0000000000000000000000000000000000000000000000000000000008152600401610d98906128c9565b60405180910390fd5b60016007600083815260200190815260200160002060000160016101000a81548160ff02191690831515021790555050565b60007f01ffc9a7000000000000000000000000000000000000000000000000000000007bffffffffffffffffffffffffffffffffffffffffffffffffffffffff1916827bffffffffffffffffffffffffffffffffffffffffffffffffffffffff1916149050919050565b600080610e498361176e565b9050600073ffffffffffffffffffffffffffffffffffffffff168173ffffffffffffffffffffffffffffffffffffffff1603610ebc57826040517f7e273289000000000000000000000000000000000000000000000000000000008152600401610eb391906122b2565b60405180910390fd5b80915050919050565b60006004600083815260200190815260200160002060009054906101000a900473ffffffffffffffffffffffffffffffffffffffff169050919050565b600033905090565b610f1783838360016117ab565b505050565b600080610f288461176e565b9050600073ffffffffffffffffffffffffffffffffffffffff168173ffffffffffffffffffffffffffffffffffffffff161480610f915750600073ffffffffffffffffffffffffffffffffffffffff168573ffffffffffffffffffffffffffffffffffffffff16145b610fd0576040517f08c379a0000000000000000000000000000000000000000000000000000000008152600401610fc790612935565b60405180910390fd5b600073ffffffffffffffffffffffffffffffffffffffff168373ffffffffffffffffffffffffffffffffffffffff16146110105761100f818486611970565b5b600073ffffffffffffffffffffffffffffffffffffffff168173ffffffffffffffffffffffffffffffffffffffff1614611053576110526000856000806117ab565b5b61105e858585611a34565b9150509392505050565b611070610f02565b73ffffffffffffffffffffffffffffffffffffffff1661108e6109bf565b73ffffffffffffffffffffffffffffffffffffffff16146110ed576110b1610f02565b6040517f118cdaa70000000000000000000000000000000000000000000000000000000081526004016110e4919061219c565b60405180910390fd5b565b60006110fe6000836000610f1c565b9050600073ffffffffffffffffffffffffffffffffffffffff168173ffffffffffffffffffffffffffffffffffffffff160361117157816040517f7e27328900000000000000000000000000000000000000000000000000000000815260040161116891906122b2565b60405180910390fd5b5050565b6000600860008473ffffffffffffffffffffffffffffffffffffffff1673ffffffffffffffffffffffffffffffffffffffff168152602001908152602001600020905060005b818054905081101561127957828282815481106111db576111da612955565b5b9060005260206000200154036112665781600183805490506111fd9190612984565b8154811061120e5761120d612955565b5b906000526020600020015482828154811061122c5761122b612955565b5b90600052602060002001819055508180548061124b5761124a6129b8565b5b60019003818190600052602060002001600090559055611279565b8080611271906127af565b9150506111bb565b50505050565b611299828260405180602001604052806000815250611c4e565b5050565b6000600660009054906101000a900473ffffffffffffffffffffffffffffffffffffffff16905081600660006101000a81548173ffffffffffffffffffffffffffffffffffffffff021916908373ffffffffffffffffffffffffffffffffffffffff1602179055508173ffffffffffffffffffffffffffffffffffffffff168173ffffffffffffffffffffffffffffffffffffffff167f8be0079c531659141344cd1fd0a4f28419497f9722a3daafe3b4186f6b6457e060405160405180910390a35050565b600073ffffffffffffffffffffffffffffffffffffffff168273ffffffffffffffffffffffffffffffffffffffff16036113d457816040517f5b08ba180000000000000000000000000000000000000000000000000000000081526004016113cb919061219c565b60405180910390fd5b80600560008573ffffffffffffffffffffffffffffffffffffffff1673ffffffffffffffffffffffffffffffffffffffff16815260200190815260200160002060008473ffffffffffffffffffffffffffffffffffffffff1673ffffffffffffffffffffffffffffffffffffffff16815260200190815260200160002060006101000a81548160ff0219169083151502179055508173ffffffffffffffffffffffffffffffffffffffff168373ffffffffffffffffffffffffffffffffffffffff167f17307eab39ab6107e8899845ad3d59bd9653f200f220920489ca2b5937696c31836040516114c5919061202b565b60405180910390a3505050565b60008373ffffffffffffffffffffffffffffffffffffffff163b1115611683578273ffffffffffffffffffffffffffffffffffffffff1663150b7a02611516610f02565b8685856040518563ffffffff1660e01b81526004016115389493929190612a3c565b6020604051808303816000875af192505050801561157457506040513d601f19601f820116820180604052508101906115719190612a9d565b60015b6115f8573d80600081146115a4576040519150601f19603f3d011682016040523d82523d6000602084013e6115a9565b606091505b5060008151036115f057836040517f64a0ae920000000000000000000000000000000000000000000000000000000081526004016115e7919061219c565b60405180910390fd5b805181602001fd5b63150b7a0260e01b7bffffffffffffffffffffffffffffffffffffffffffffffffffffffff1916817bffffffffffffffffffffffffffffffffffffffffffffffffffffffff19161461168157836040517f64a0ae92000000000000000000000000000000000000000000000000000000008152600401611678919061219c565b60405180910390fd5b505b50505050565b606060405180602001604052806000815250905090565b6060600060016116af84611c6a565b01905060008167ffffffffffffffff8111156116ce576116cd612423565b5b6040519080825280601f01601f1916602001820160405280156117005781602001600182028036833780820191505090505b509050600082602001820190505b600115611763578080600190039150507f3031323334353637383961626364656600000000000000000000000000000000600a86061a8153600a858161175757611756612aca565b5b0494506000850361170e575b819350505050919050565b60006002600083815260200190815260200160002060009054906101000a900473ffffffffffffffffffffffffffffffffffffffff169050919050565b80806117e45750600073ffffffffffffffffffffffffffffffffffffffff168273ffffffffffffffffffffffffffffffffffffffff1614155b156119185760006117f484610e3d565b9050600073ffffffffffffffffffffffffffffffffffffffff168373ffffffffffffffffffffffffffffffffffffffff161415801561185f57508273ffffffffffffffffffffffffffffffffffffffff168173ffffffffffffffffffffffffffffffffffffffff1614155b801561187257506118708184610bae565b155b156118b457826040517fa9fbf51f0000000000000000000000000000000000000000000000000000000081526004016118ab919061219c565b60405180910390fd5b811561191657838573ffffffffffffffffffffffffffffffffffffffff168273ffffffffffffffffffffffffffffffffffffffff167f8c5be1e5ebec7d5bd14f71427d1e84f3dd0314c0f7b2291e5b200ac8c7c3b92560405160405180910390a45b505b836004600085815260200190815260200160002060006101000a81548173ffffffffffffffffffffffffffffffffffffffff021916908373ffffffffffffffffffffffffffffffffffffffff16021790555050505050565b61197b838383611dbd565b611a2f57600073ffffffffffffffffffffffffffffffffffffffff168373ffffffffffffffffffffffffffffffffffffffff16036119f057806040517f7e2732890000000000000000000000000000000000000000000000000000000081526004016119e791906122b2565b60405180910390fd5b81816040517f177e802f000000000000000000000000000000000000000000000000000000008152600401611a26929190612af9565b60405180910390fd5b505050565b600080611a408461176e565b9050600073ffffffffffffffffffffffffffffffffffffffff168373ffffffffffffffffffffffffffffffffffffffff1614611a8257611a81818486611970565b5b600073ffffffffffffffffffffffffffffffffffffffff168173ffffffffffffffffffffffffffffffffffffffff1614611b1357611ac46000856000806117ab565b6001600360008373ffffffffffffffffffffffffffffffffffffffff1673ffffffffffffffffffffffffffffffffffffffff168152602001908152602001600020600082825403925050819055505b600073ffffffffffffffffffffffffffffffffffffffff168573ffffffffffffffffffffffffffffffffffffffff1614611b96576001600360008773ffffffffffffffffffffffffffffffffffffffff1673ffffffffffffffffffffffffffffffffffffffff168152602001908152602001600020600082825401925050819055505b846002600086815260200190815260200160002060006101000a81548173ffffffffffffffffffffffffffffffffffffffff021916908373ffffffffffffffffffffffffffffffffffffffff160217905550838573ffffffffffffffffffffffffffffffffffffffff168273ffffffffffffffffffffffffffffffffffffffff167fddf252ad1be2c89b69c2b068fc378daa952ba7f163c4a11628f55a4df523b3ef60405160405180910390a4809150509392505050565b611c588383611e7e565b611c6560008484846114d2565b505050565b600080600090507a184f03e93ff9f4daa797ed6e38ed64bf6a1f0100000000000000008310611cc8577a184f03e93ff9f4daa797ed6e38ed64bf6a1f0100000000000000008381611cbe57611cbd612aca565b5b0492506040810190505b6d04ee2d6d415b85acef81000000008310611d05576d04ee2d6d415b85acef81000000008381611cfb57611cfa612aca565b5b0492506020810190505b662386f26fc100008310611d3457662386f26fc100008381611d2a57611d29612aca565b5b0492506010810190505b6305f5e1008310611d5d576305f5e1008381611d5357611d52612aca565b5b0492506008810190505b6127108310611d82576127108381611d7857611d77612aca565b5b0492506004810190505b60648310611da55760648381611d9b57611d9a612aca565b5b0492506002810190505b600a8310611db4576001810190505b80915050919050565b60008073ffffffffffffffffffffffffffffffffffffffff168373ffffffffffffffffffffffffffffffffffffffff1614158015611e7557508273ffffffffffffffffffffffffffffffffffffffff168473ffffffffffffffffffffffffffffffffffffffff161480611e365750611e358484610bae565b5b80611e7457508273ffffffffffffffffffffffffffffffffffffffff16611e5c83610ec5565b73ffffffffffffffffffffffffffffffffffffffff16145b5b90509392505050565b600073ffffffffffffffffffffffffffffffffffffffff168273ffffffffffffffffffffffffffffffffffffffff1603611ef05760006040517f64a0ae92000000000000000000000000000000000000000000000000000000008152600401611ee7919061219c565b60405180910390fd5b6000611efe83836000610f1c565b9050600073ffffffffffffffffffffffffffffffffffffffff168173ffffffffffffffffffffffffffffffffffffffff1614611f725760006040517f73c6ac6e000000000000000000000000000000000000000000000000000000008152600401611f69919061219c565b60405180910390fd5b505050565b6000604051905090565b600080fd5b600080fd5b60007fffffffff0000000000000000000000000000000000000000000000000000000082169050919050565b611fc081611f8b565b8114611fcb57600080fd5b50565b600081359050611fdd81611fb7565b92915050565b600060208284031215611ff957611ff8611f81565b5b600061200784828501611fce565b91505092915050565b60008115159050919050565b61202581612010565b82525050565b6000602082019050612040600083018461201c565b92915050565b600081519050919050565b600082825260208201905092915050565b60005b83811015612080578082015181840152602081019050612065565b60008484015250505050565b6000601f19601f8301169050919050565b60006120a882612046565b6120b28185612051565b93506120c2818560208601612062565b6120cb8161208c565b840191505092915050565b600060208201905081810360008301526120f0818461209d565b905092915050565b6000819050919050565b61210b816120f8565b811461211657600080fd5b50565b60008135905061212881612102565b92915050565b60006020828403121561214457612143611f81565b5b600061215284828501612119565b91505092915050565b600073ffffffffffffffffffffffffffffffffffffffff82169050919050565b60006121868261215b565b9050919050565b6121968161217b565b82525050565b60006020820190506121b1600083018461218d565b92915050565b6121c08161217b565b81146121cb57600080fd5b50565b6000813590506121dd816121b7565b92915050565b600080604083850312156121fa576121f9611f81565b5b6000612208858286016121ce565b925050602061221985828601612119565b9150509250929050565b60008060006060848603121561223c5761223b611f81565b5b600061224a868287016121ce565b935050602061225b868287016121ce565b925050604061226c86828701612119565b9150509250925092565b60006020828403121561228c5761228b611f81565b5b600061229a848285016121ce565b91505092915050565b6122ac816120f8565b82525050565b60006020820190506122c760008301846122a3565b92915050565b6122d681612010565b81146122e157600080fd5b50565b6000813590506122f3816122cd565b92915050565b600080604083850312156123105761230f611f81565b5b600061231e858286016121ce565b925050602061232f858286016122e4565b9150509250929050565b600081519050919050565b600082825260208201905092915050565b6000819050602082019050919050565b61236e816120f8565b82525050565b60006123808383612365565b60208301905092915050565b6000602082019050919050565b60006123a482612339565b6123ae8185612344565b93506123b983612355565b8060005b838110156123ea5781516123d18882612374565b97506123dc8361238c565b9250506001810190506123bd565b5085935050505092915050565b600060208201905081810360008301526124118184612399565b905092915050565b600080fd5b600080fd5b7f4e487b7100000000000000000000000000000000000000000000000000000000600052604160045260246000fd5b61245b8261208c565b810181811067ffffffffffffffff8211171561247a57612479612423565b5b80604052505050565b600061248d611f77565b90506124998282612452565b919050565b600067ffffffffffffffff8211156124b9576124b8612423565b5b6124c28261208c565b9050602081019050919050565b82818337600083830152505050565b60006124f16124ec8461249e565b612483565b90508281526020810184848401111561250d5761250c61241e565b5b6125188482856124cf565b509392505050565b600082601f83011261253557612534612419565b5b81356125458482602086016124de565b91505092915050565b6000806000806080858703121561256857612567611f81565b5b6000612576878288016121ce565b9450506020612587878288016121ce565b935050604061259887828801612119565b925050606085013567ffffffffffffffff8111156125b9576125b8611f86565b5b6125c587828801612520565b91505092959194509250565b600080604083850312156125e8576125e7611f81565b5b60006125f6858286016121ce565b9250506020612607858286016121ce565b9150509250929050565b7f4e487b7100000000000000000000000000000000000000000000000000000000600052602260045260246000fd5b6000600282049050600182168061265857607f821691505b60208210810361266b5761266a612611565b5b50919050565b6000606082019050612686600083018661218d565b61269360208301856122a3565b6126a0604083018461218d565b949350505050565b7f436572746966696361746520646f6573206e6f74206578697374000000000000600082015250565b60006126de601a83612051565b91506126e9826126a8565b602082019050919050565b6000602082019050818103600083015261270d816126d1565b9050919050565b7f4365727469666963617465206973206e6f7420617070726f7665640000000000600082015250565b600061274a601b83612051565b915061275582612714565b602082019050919050565b600060208201905081810360008301526127798161273d565b9050919050565b7f4e487b7100000000000000000000000000000000000000000000000000000000600052601160045260246000fd5b60006127ba826120f8565b91507fffffffffffffffffffffffffffffffffffffffffffffffffffffffffffffffff82036127ec576127eb612780565b5b600182019050919050565b600081905092915050565b600061280d82612046565b61281781856127f7565b9350612827818560208601612062565b80840191505092915050565b600061283f8285612802565b915061284b8284612802565b91508190509392505050565b7f4f6e6c7920746865206365727469666963617465206f776e65722063616e206160008201527f7070726f76650000000000000000000000000000000000000000000000000000602082015250565b60006128b3602683612051565b91506128be82612857565b604082019050919050565b600060208201905081810360008301526128e2816128a6565b9050919050565b7f536f756c626f756e643a205472616e73666572206e6f7420616c6c6f77656400600082015250565b600061291f601f83612051565b915061292a826128e9565b602082019050919050565b6000602082019050818103600083015261294e81612912565b9050919050565b7f4e487b7100000000000000000000000000000000000000000000000000000000600052603260045260246000fd5b600061298f826120f8565b915061299a836120f8565b92508282039050818111156129b2576129b1612780565b5b92915050565b7f4e487b7100000000000000000000000000000000000000000000000000000000600052603160045260246000fd5b600081519050919050565b600082825260208201905092915050565b6000612a0e826129e7565b612a1881856129f2565b9350612a28818560208601612062565b612a318161208c565b840191505092915050565b6000608082019050612a51600083018761218d565b612a5e602083018661218d565b612a6b60408301856122a3565b8181036060830152612a7d8184612a03565b905095945050505050565b600081519050612a9781611fb7565b92915050565b600060208284031215612ab357612ab2611f81565b5b6000612ac184828501612a88565b91505092915050565b7f4e487b7100000000000000000000000000000000000000000000000000000000600052601260045260246000fd5b6000604082019050612b0e600083018561218d565b612b1b60208301846122a3565b939250505056fea26469706673582212209397a443477a45d4889c79be9d9de7df3f2873d0bf1e0e44b0e06dacc4d00ce264736f6c63430008140033",
  "linkReferences": {},
  "deployedLinkReferences": {}
}